:020000040800F2
:1000000000000220090A0008D9060008DB060008E3
:10001000DD060008DF060008E10600080000000019
:10002000000000000000000000000000E3060008DF
:10003000E506000800000000E7060008E9060008E1
:10004000590A0008590A0008590A0008590A000804
:10005000590A0008590A0008590A0008590A0008F4
:10006000590A0008590A0008590A0008590A0008E4
:10007000590A0008590A0008590A0008590A0008D4
:10008000590A0008590A0008590A0008590A0008C4
:10009000590A0008590A0008590A0008590A0008B4
:1000A000590A0008590A0008590A0008590A0008A4
:1000B000590A0008590A0008590A0008590A000894
:1000C000590A0008590A0008590A0008590A000884
:1000D000590A0008F1060008590A0008590A0008E0
:1000E000590A0008590A0008590A0008590A000864
:1000F000590A0008590A0008590A0008590A000854
:10010000590A0008590A000801070008590A00089E
:10011000590A0008590A000811070008590A00087E
:10012000590A0008590A0008590A0008590A000823
:10013000590A0008590A0008590A0008590A000813
:10014000590A0008590A0008590A0008590A000803
:10015000590A0008590A0008590A0008590A0008F3
:10016000590A0008590A0008590A0008590A0008E3
:10017000590A0008590A0008590A0008000000003E
:08018000590A0008590A0008A1
:1001880010B5054C237833B9044B13B10448AFF3C9
:1001980000800123237010BD100000200000000023
:1001A8001C26000808B5034B1BB103490348AFF3ED
:1001B800008008BD00000000140000201C26000874
:1001C80053B94AB9002908BF00281CBF4FF0FF31B6
:1001D8004FF0FF3000F06AB9ADF1080C6DE904CEBC
:1001E80000F006F8DDF804E0DDE9022304B070470A
:1001F8002DE9F047089D0C46002B4ED194468C45BE
:100208008646B2FA82F262D94AB1C2F1200391401D
:1002180020FA03F30CFA02FC194300FA02FE4FEA33
:100228001C471FFA8CF6B1FBF7F44FEA1E4307FB95
:10023800141143EA014304FB06F199420AD91CEB65
:10024800030304F1FF3080F01281994240F20F81DC
:10025800023C6344591A1FFA8EF3B1FBF7F007FB0F
:10026800101143EA014300FB06F69E420AD91CEB33
:10027800030300F1FF3180F0FC809E4240F2F980D8
:10028800634402389B1B40EA044000211DB1D3405F
:100298000022C5E90032BDE8F0878B4205D90DB1CF
:1002A800C5E9000100210846F5E7B3FA83F1002902
:1002B80046D1A34202D39042C0F0F080861A64EB84
:1002C80003030120002DE6D0C5E90063E3E7002A17
:1002D80040F09080A1EB0C044FEA1C481FFA8CF701
:1002E8000121B4FBF8F64FEA1E4308FB164443EA23
:1002F800044307FB06F0984208D91CEB030306F1F8
:10030800FF3402D2984200F2CD8026461C1A1FFA0A
:100318008EF3B4FBF8F008FB104443EA044300FBF7
:1003280007F79F4208D91CEB030300F1FF3402D200
:100338009F4200F2B0802046DB1B40EA0640A5E75A
:10034800C1F120068B4022FA06F71F4320FA06FC6B
:1003580004FA01F343EA0C03F44000FA01F8380CFC
:100368004FEA1349B4FBF0FE1FFA87FC00FB1E445A
:1003780049EA04440EFB0CF9A14502FA01F20AD934
:100388003C190EF1FF3A80F08480A14540F281804B
:10039800AEF1020E3C44A4EB09041FFA83F9B4FB46
:1003A800F0F300FB134449EA044403FB0CFCA445A6
:1003B80007D93C1903F1FF3067D2A44565D9023B40
:1003C8003C4443EA0E40A0FB0293A4EB0C049C427D
:1003D800CE469C4651D34ED055B1B8EB0E0364EBD4
:1003E8000C0404FA06F6CB401E43CC40C5E9006471
:1003F800002150E7C2F1200320FA03F10CFA02FCB5
:1004080024FA03F394400C434FEA1C4800FA02FE16
:100418001FFA8CF7B3FBF8F008FB1031230C43EA02
:10042800014300FB07F1994208D91CEB030300F1D3
:10043800FF362CD299422AD9023863445B1AA4B2F7
:10044800B3FBF8F108FB113344EA034401FB07F35B
:10045800A34208D91CEB040401F1FF3613D2A342CE
:1004680011D902396444E41A41EA004139E70446E3
:10047800F0E6084606E7C845AED2B9EB020E63EBD4
:10048800070C0138A8E73146EDE7034699E73046FF
:10049800D4E7D6467FE7634402384DE7064623464D
:1004A80008460FE7023E634430E700BF704700BFCD
:1004B80008B50268044B9A4200D008BD4FF4806129
:1004C800024800F0F3FCF8E700100040001C02406E
:1004D8000F4B834200D0704770B50E4D0E4C22680A
:1004E80063682A606B6023892B8101224FF4805155
:1004F8000A4800F0D5FC064E0A222946304601F08B
:10050800DFFD0A222146304601F0DFFF70BD00BF43
:10051800D40000202C00002038000020001C0240DD
:1005280030B589B000240394049405940694079484
:100538000094194B1A6B42F001021A631A6B02F00D
:1005480001020092009A01941A6B42F002021A63A7
:100558001A6B02F002020192019A02941A6B42F09D
:1005680080021A631B6B03F080030293029B0B4DFE
:1005780022464FF4E051284600F092FC4FF4E05335
:100588000393012304930594069403A9284600F0D5
:100598008DFB09B030BD00BF00380240001C02408E
:1005A80072B6FEE700B595B03022002108A801F028
:1005B8009FFF0023039304930593069307930193E6
:1005C800204A116C41F080511164126C02F0805283
:1005D8000192019A02931C4B1A6842F480421A60F5
:1005E8001B6803F480430293029B012308934FF492
:1005F8008033099302230E934FF480020F92062250
:100608001092A822119212930423139308A800F0C1
:1006180057FC98B90F2303930223049300230593EF
:100628004FF4A05306934FF480530793052103A872
:1006380000F096FE20B915B05DF804FBFFF7B0FF97
:10064800FFF7AEFF003802400070004008B500F028
:1006580027FAFFF7A7FFFFF763FF00F05FF800F046
:10066800EBF800F05BF9084801F016F8074C204653
:1006780001F012F80421204601F00AFB0A2204497D
:10068800044801F022FFFEE7440000208C0000200F
:1006980038000020D400002082B0002100910B4BCC
:1006A8005A6C42F480425A645A6C02F480420092B6
:1006B800009A01911A6C42F080521A641B6C03F084
:1006C80080530193019B02B0704700BF003802407D
:1006D800FEE7FEE7FEE7FEE7FEE770477047704774
:1006E80008B500F0F7F908BD08B5024801F090FD1B
:1006F80008BD00BFD400002008B5024801F015F875
:1007080008BD00BF8C00002008B5024801F00DF8B4
:1007180008BD00BF440000207047000000B583B04A
:100728000023009301930F480F4A026042F2CF0260
:100738004260836041F28732C260836101F010F940
:1007480050B90023009301936946064801F05AFB0B
:1007580028B903B05DF804FBFFF722FFF1E7FFF7C4
:100768001FFFF6E7440000200010004000B583B0EA
:100778000368184A934205D0174A934216D003B02B
:100788005DF804FB00210091144B1A6C42F008023A
:100798001A641B6C03F008030093009B0A4632207E
:1007A80000F0FEF9322000F00BFAE8E70021019191
:1007B8000A4B1A6C42F010021A641B6C03F0100307
:1007C8000193019B0A46362000F0EAF9362000F032
:1007D800F7F9D4E7000C0040001000400038024050
:1007E80000B587B000230193029303930493059304
:1007F80002680E4B9A4202D007B05DF804FB002352
:1008080000930B4B1A6B42F001021A631B6B03F047
:1008180001030093009B072301930223029305938E
:1008280001A9044800F042FAE6E700BF000C0040C6
:10083800003802400000024000B58FB000230A9340
:100848000B930C930D9308930993019302930393CD
:1008580004930593069307932E482F4A026042F2A9
:10086800CF024260836041F28732C26003618361D4
:1008780001F076F8002838D14FF480530A930AA97A
:10088800244801F077F9002832D1224801F094F881
:10089800002830D100230893099308A91D4801F0C6
:1008A800B1FA58BB60230193002202920392059289
:1008B80001A9184801F0E4F818BB40F2CF7302937D
:1008C80004220DEB0201134801F0DAF8E0B9002325
:1008D8000293082201A90F4801F0D2F8B8B90D48CF
:1008E800FFF77EFF0FB05DF804FBFFF759FEC3E783
:1008F800FFF756FEC9E7FFF753FECBE7FFF750FEB9
:10090800D0E7FFF74DFED8E7FFF74AFEDFE7FFF72E
:1009180047FEE4E78C000020000C004008B50B48B7
:100928000B4B03604FF4E133436000238360C360E3
:100938004FF4806202610C2242618361C36101F05D
:100948008FFB00B908BDFFF72BFEFBE7D4000020A2
:1009580000100140F0B589B0002303930493059378
:1009680006930793026803F1804303F588339A429C
:1009780001D009B0F0BD0024009403F594335A6CFB
:1009880042F010025A645A6C02F010020092009A67
:1009980001941A6B42F002021A631A6B02F0020207
:1009A8000192019A02941A6B42F001021A631B6BBE
:1009B80003F001030293029B802303930227049709
:1009C800032606960725079503A90B4800F06EF93C
:1009D8004FF400730393049705940696079503A9AB
:1009E800064800F063F922462146252000F0D8F891
:1009F800252000F0E5F8BCE70004024000000240B2
:100A0800DFF834D0FFF788FE0C480D490D4A002363
:100A180002E0D458C4500433C4188C42F9D30A4AAB
:100A28000A4C002301E013600432A242FBD301F018
:100A380067FDFFF70BFE7047000002200000002052
:100A4800100000206026000810000020B8020020D6
:100A5800FEE7000010B504460E4B1A784FF47A737F
:100A6800B3FBF2F30C4A1068B0FBF3F000F0ACF8FB
:100A780068B90F2C01D901200AE0002221464FF065
:100A8800FF3000F08DF8054B1C60002000E00120CD
:100A980010BD00BF04000020000000200800002056
:100AA80008B50B4B1A6842F400721A601A6842F4CF
:100AB80080621A601A6842F480721A60032000F09B
:100AC8005DF80F20FFF7C6FFFFF7E6FD002008BD21
:100AD800003C0240034A1168034B1B780B44136027
:100AE800704700BF1C01002004000020014B18685B
:100AF800704700BF1C010020002807DB00F01F0220
:100B0800400901239340024A42F82030704700BF51
:100B180000E100E0002808DB0901C9B200F16040EB
:100B280000F5614080F80013704700F00F000901DC
:100B3800C9B2014B1954704714ED00E000B500F03C
:100B48000700C0F1070CBCF1040F28BF4FF0040CDC
:100B5800031D062B0FD9C31E4FF0FF3E0EFA0CF0F3
:100B680021EA000199400EFA03FE22EA0E0241EA48
:100B780002005DF804FB0023EEE70000074AD36893
:100B880023F4E0631B041B0C000200F4E060034341
:100B980043F0BF6343F40033D360704700ED00E0D7
:100BA80010B50446054BD868C0F30220FFF7C6FF0E
:100BB80001462046FFF7AEFF10BD00BF00ED00E084
:100BC80008B5FFF799FF08BD0138B0F1807F0BD257
:100BD8004FF0E0235861054AF02182F823100020E5
:100BE800986107221A6170470120704700ED00E004
:100BF80070B50446866DFFF779FF94F83530DBB29F
:100C0800022B06D080236365002384F8343001204A
:100C180070BD05462268136823F016031360226826
:100C2800536923F080035361236CE3B1226813688E
:100C380023F0080313602268136823F0010313608C
:100C480023681B6813F0010F11D0FFF74FFF431BF8
:100C5800052BF5D920236365032084F8350000238C
:100C680084F83430D4E7A36C002BDFD1E3E7E26DDE
:100C78003F239340B360012384F83530002084F883
:100C88003400C5E790F83530DBB2022B03D080235F
:100C9800436501207047052380F8353002681368E2
:100CA80023F00103136000207047000000230F2B7E
:100CB80000F2EC8030B583B068E085684FEA430EF7
:100CC800032404FA0EF425EA0405CC6804FA0EF4A9
:100CD8002C438460446824EA02044A68C2F3001280
:100CE8009A40224342605FE0DC08083450F8242030
:100CF80003F00705AD004FF00F0E0EFA05FE22EACD
:100D08000E0E0A69AA4042EA0E0240F824205FE06B
:100D1800072200E0002202FA0EF22A4302345C4D58
:100D280045F824205B4A94686FEA0C0224EA0C0513
:100D3800D1F804E01EF4801F01D04CEA0405554C9C
:100D4800A560E46802EA0405D1F804E01EF4001F77
:100D580001D04CEA04054F4CE560646802EA0405DA
:100D6800D1F804E01EF4003F01D04CEA0405494CD8
:100D78006560246822404D6815F4803F01D04CEA34
:100D88000402444C226001330F2B7DD801229A4083
:100D98000C6804EA020C32EA0404F4D14C6804F04A
:100DA8000304013C012C88D94A6802F00302032A93
:100DB80009D0C4685D000322AA4024EA02048A68B4
:100DC800AA402243C2604A6802F00302022A8BD07A
:100DD80004684FEA430E032202FA0EF224EA0204E0
:100DE8004A6802F0030202FA0EF2224302604A68DD
:100DF80012F4403FC7D000220192274A546C44F4B1
:100E080080445464526C02F480420192019A9C0816
:100E1800A51C1F4A52F8255003F0030E4FEA8E0E08
:100E28000F2202FA0EF225EA02051C4A90423FF40C
:100E380071AF02F5806290421AD002F5806290424A
:100E480018D002F58062904216D002F58062904276
:100E580014D002F58062904212D002F5806290426E
:100E680010D002F5806290423FF452AF082252E758
:100E7800012250E702224EE703224CE704224AE708
:100E8800052248E7062246E703B030BD704700BF99
:100E980000380140003C0140003802400000024098
:100EA8000AB181617047090481617047436901EAA9
:100EB800030221EA030141EA02418161704700000F
:100EC800002800F0E08170B582B00446036813F092
:100ED800010F3BD09F4B9B6803F00C03042B2CD0D5
:100EE8009C4B9B6803F00C03082B21D06368B3F577
:100EF800803F4FD0B3F5A02F52D0964B1A6822F4FA
:100F080080321A601A6822F480221A606368002B03
:100F180050D0FFF7EBFD05468E4B1B6813F4003FDE
:100F280014D1FFF7E3FD401B6428F5D90320B1E194
:100F3800884B5B6813F4800FD8D0864B1B6813F47A
:100F4800003F03D06368002B00F09F81236813F0F3
:100F5800020F54D07F4B9B6813F00C0F3ED07D4B93
:100F68009B6803F00C03082B33D0E368002B68D090
:100F7800794B01221A60FFF7B9FD0546754B1B68CE
:100F880013F0020F54D1FFF7B1FD401B0228F5D929
:100F980003207FE16F4A136843F480331360B5E799
:100FA8006C4B1A6842F480221A601A6842F4803244
:100FB8001A60ABE7FFF79AFD0546664B1B6813F40A
:100FC800003FC3D0FFF792FD401B6428F5D90320EA
:100FD80060E1604B5B6813F4800FC6D15D4B1B6802
:100FE80013F0020F03D0E368012B40F05081594AF7
:100FF800136823F0F803216943EAC10313602368E7
:1010080013F0080F42D063696BB3534B0122C3F846
:10101800802EFFF76BFD05464E4B5B6F13F0020FFA
:1010280034D1FFF763FD401B0228F5D9032031E1D5
:10103800484A136823F0F803216943EAC10313609F
:10104800DDE7454B00221A60FFF750FD0546414B8E
:101058001B6813F0020FD2D0FFF748FD401B02288F
:10106800F5D9032016E13C4B0022C3F8802EFFF788
:101078003DFD0546374B5B6F13F0020F06D0FFF7B7
:1010880035FD401B0228F5D9032003E1236813F03E
:10109800040F77D02F4B1B6C13F0805F33D10023E4
:1010A80001932C4B1A6C42F080521A641B6C03F0AB
:1010B80080530193019B0125284B1B6813F4807F03
:1010C80023D0A368012B34D0052B38D0214B1A6FBD
:1010D80022F001021A671A6F22F004021A67A36845
:1010E800002B3DD0FFF702FD06461A4B1B6F13F08D
:1010F800020F46D1FFF7FAFC801B41F28833984271
:10110800F3D90320C6E00025D6E7144A136843F450
:1011180080731360FFF7EAFC0646104B1B6813F454
:10112800807FCED1FFF7E2FC801B0228F5D903208F
:10113800B0E0084A136F43F001031367CFE7054B8C
:101148001A6F42F004021A671A6F42F001021A6716
:10115800C5E700BF00380240000047420070004069
:10116800FFF7C4FC0646524B1B6F13F0020F08D062
:10117800FFF7BCFC801B41F288339842F3D9032067
:1011880088E0EDB9A369002B00F08380484A926893
:1011980002F00C02082A51D0022B17D0454B00222E
:1011A8001A66FFF7A3FC0446414B1B6813F0007F47
:1011B80042D0FFF79BFC001B0228F5D9032069E009
:1011C8003B4A136C23F080531364DBE7394B00224E
:1011D8001A66FFF78BFC0546354B1B6813F0007F3A
:1011E80006D0FFF783FC401B0228F5D9032051E005
:1011F800E369226A1343626A43EA8213A26A5208C5
:10120800013A43EA0243E26A43EA0263284A536026
:10121800284B01221A66FFF769FC0446244B1B6819
:1012280013F0007F06D1FFF761FC001B0228F5D9F7
:1012380003202FE000202DE000202BE0012B2BD0F5
:101248001B4B5B6803F48001E269914226D103F0ED
:101258003F02216A8A4223D1616A47F6C0721A4066
:10126800B2EB811F1ED103F44031A26A5208013A41
:10127800B1EB024F18D103F07063E26AB3EB026F6F
:1012880014D1002006E001207047012002E001206F
:1012980000E0002002B070BD0120FBE70120F9E763
:1012A8000120F7E70120F5E70120F3E70120F1E746
:1012B800003802400000474208B5264B9B6803F0FF
:1012C8000C03042B41D0082B41D1224B5A6802F061
:1012D8003F025B6813F4800F12D01E4B5968C1F3AC
:1012E80088111D480023A1FB0001FEF769FF194B77
:1012F8005B68C3F3014301335B00B0FBF3F027E005
:10130800144B5868C0F388104FEA401CBCEB000C23
:101318006EEB0E0E4FEA8E1343EA9C634FEA8C1174
:10132800B1EB0C0163EB0E03DB0043EA5173C90018
:1013380011EB000C43F10003990200234FEA8C20C3
:1013480041EA9C51FEF73CFFD1E7034800E003481F
:1013580008BD00BF00380240001BB7000024F4009D
:10136800002800F09B8070B50D4604464F4B1B6863
:1013780003F007038B4208D2CBB24C4A13701368B0
:1013880003F007038B4240F08B80236813F0020FB1
:1013980017D013F0040F04D0454A936843F4E05380
:1013A8009360236813F0080F04D0414A936843F40C
:1013B800604393603E4A936823F0F003A1680B43AF
:1013C8009360236813F0010F32D06368012B21D09A
:1013D8009A1E012A25D9364A126812F0020F61D0E6
:1013E80033498A6822F0030213438B60FFF77EFBC0
:1013F80006462F4B9B6803F00C036268B3EB820F21
:1014080016D0FFF773FB801B41F288339842F0D95E
:10141800032042E0264A126812F4003FE0D101207E
:101428003BE0234A126812F0007FD9D1012034E052
:101438001E4B1B6803F00703AB4207D9EAB21B4BEC
:101448001A701B6803F00703AB422DD1236813F011
:10145800040F06D0164A936823F4E053E1680B435F
:101468009360236813F0080F07D0114A936823F498
:101478006043216943EAC1039360FFF71DFF0C4BEA
:101488009B68C3F303130B4AD35CD8400A4B18601C
:101498000A4B1868FFF7DEFA002070BD012070477C
:1014A8000120FAE70120F8E70120F6E7003C0240B6
:1014B800003802403C2600080000002008000020F8
:1014C800014B1868704700BF0000002008B5FFF7FF
:1014D800F7FF044B9B68C3F38223034AD35CD840CD
:1014E80008BD00BF003802403426000808B5FFF7E1
:1014F800E7FF044B9B68C3F34233034AD35CD840ED
:1015080008BD00BF003802403426000830B4036A22
:10151800026A22F0010202624268846924F0730CB4
:101528000C6844EA0C0423F0020C8B6843EA0C03B1
:10153800114DA84203D005F58065A84205D123F0D6
:101548000803CD682B4323F004030B4DA84203D0B6
:1015580005F58065A84207D122F440724D6945EA35
:10156800020C8A6942EA0C02426084614A6842635A
:10157800036230BC704700BF0000014030B4036A0A
:10158800026A22F4807202624268C46924F0730C11
:101598000C6844EA0C0523F400738C6843EA0423BE
:1015A800114CA04203D004F58064A04206D123F474
:1015B8000063CC6843EA042323F480630A4CA04206
:1015C80003D004F58064A04207D122F440524C694C
:1015D80042EA04128C6942EA04124260C5614A6810
:1015E800C263036230BC70470000014030B4036A34
:1015F800026A22F4805202624468C26922F4E64216
:101608000D6842EA052223F400538D6843EA053346
:10161800094DA84203D005F58065A84204D124F4F9
:1016280080444D6944EA85144460C2614A68026492
:10163800036230BC704700BF0000014010B4036A69
:10164800046A24F001040462846924F0F00C4CEA72
:10165800021223F00A030B438261036210BC704735
:1016680010B4036A046A24F010040462846924F440
:10167800704C4CEA023223F0A00343EA0113826162
:10168800036210BC7047836823F070030B4343F078
:10169800070383607047000090F83D30DBB2012BF0
:1016A80037D1022380F83D300268D36843F0010344
:1016B800D3600368194A934220D0B3F1804F1DD0FC
:1016C800A2F57C42934219D002F58062934215D06C
:1016D80002F58062934211D002F5784293420DD010
:1016E80002F57052934209D0A2F59432934205D084
:1016F8001A6842F001021A60002070479A6802F0E6
:101708000702062A07D01A6842F001021A60002070
:101718007047012070470020704700BF000001405B
:101728007047704770477047704770B50446036844
:10173800DE681D6915F0020F10D016F0020F0DD0EB
:101748006FF002021A610123037703689B6913F0A3
:10175800030F5ED0FFF7E6FF0023237715F0040F91
:1017680012D016F0040F0FD023686FF004021A612C
:101778000223237723689B6913F4407F4FD02046C8
:10178800FFF7D0FF0023237715F0080F12D016F0CB
:10179800080F0FD023686FF008021A61042323771B
:1017A8002368DB6913F0030F40D02046FFF7BAFF28
:1017B8000023237715F0100F12D016F0100F0FD05A
:1017C80023686FF010021A61082323772368DB6906
:1017D80013F4407F31D02046FFF7A4FF002323777E
:1017E80015F0010F02D016F0010F2DD115F0800F62
:1017F80002D016F0800F2FD115F0400F02D016F04E
:10180800400F31D115F0200F02D016F0200F33D140
:1018180070BDFFF786FF2046FFF785FF9CE720464F
:10182800FFF77FFF2046FFF77EFFABE72046FFF775
:1018380078FF2046FFF777FFBAE72046FFF771FFEA
:101848002046FFF770FFC9E723686FF001021A61AD
:101858002046FEF72DFEC9E723686FF080021A6163
:10186800204600F016FBC7E723686FF040021A61B4
:101878002046FFF759FFC5E723686FF020021A6179
:10188800204600F005FBC3E70368344A904212D0B3
:10189800B0F1804F0FD0A2F57C4290420BD002F5F8
:1018A8008062904207D002F58062904203D002F530
:1018B8007842904203D123F070034A681343274AC1
:1018C80090422AD0B0F1804F27D0A2F57C429042B6
:1018D80023D002F5806290421FD002F580629042C8
:1018E8001BD002F57842904217D002F57052904210
:1018F80013D002F5806290420FD002F580629042C8
:101908000BD0A2F59832904207D002F5806290423F
:1019180003D002F58062904203D123F44073CA6871
:10192800134323F080034A69134303608B68C3623F
:101938000B688362094B984203D003F58063984291
:1019480001D10B69036301234361036913F0010F9C
:1019580003D0036923F001030361704700000140CD
:1019680040B310B5044690F83D30F3B1022384F833
:101978003D30214651F8040BFFF786FF012384F818
:10198800463084F83E3084F83F3084F8403084F89C
:10199800413084F8423084F8433084F8443084F885
:1019A800453084F83D30002010BD80F83C30FEF70B
:1019B800DDFEDBE70120704740B310B5044690F820
:1019C8003D30F3B1022384F83D30214651F8040B31
:1019D800FFF75AFF012384F8463084F83E3084F834
:1019E8003F3084F8403084F8413084F8423084F83D
:1019F800433084F8443084F8453084F83D30002082
:101A080010BD80F83C30FFF78BFEDBE70120704704
:101A180030B4036A026A22F01002026244688269E2
:101A280022F4E6420D6842EA052223F020038D687D
:101A380043EA0513114DA84203D005F58065A84275
:101A480006D123F08003CD6843EA051323F0400351
:101A58000A4DA84203D005F58065A84207D124F4B1
:101A680040644D6944EA85048D6944EA850444600C
:101A780082614A688263036230BC7047000001409B
:101A880038B590F83C30012B66D004460D4601234A
:101A980080F83C300C2A5AD8DFE802F00759595927
:101AA8001B5959593059595944000068FFF72EFD00
:101AB8002268936943F0080393612268936923F0CD
:101AC800040393612268936929690B439361002099
:101AD8003EE00068FFF79CFF2268936943F40063C7
:101AE80093612268936923F4806393612268936900
:101AF800296943EA01239361002029E00068FFF780
:101B08003DFD2268D36943F00803D3612268D36995
:101B180023F00403D3612268D36929690B43D36195
:101B2800002015E00068FFF761FD2268D36943F4DF
:101B38000063D3612268D36923F48063D361226888
:101B4800D369296943EA0123D361002000E0012019
:101B5800002384F83C3038BD0220FCE710B48468C8
:101B680024F47F4C42EA03220A4342EA0C028260D0
:101B780010BC704790F83C30012B78D010B5044663
:101B8800012380F83C30022380F83D3002689368D6
:101B980023F47F4323F0770393600B68602B4CD0CA
:101BA80029D8402B54D00CD9502B22D1CA68496867
:101BB8000068FFF743FD50212068FFF764FD00200F
:101BC80005E0202B0DD009D9302B0AD001200123A4
:101BD80084F83D30002384F83C3010BD0BB1102B45
:101BE80005D119462068FFF74EFD0020EFE70120D8
:101BF800EDE70120EBE7B3F5805F34D0B3F5005F84
:101C08000CD1CB684A6889680068FFF7A7FF22688B
:101C1800936843F4804393600020D8E7702B24D165
:101C2800CB684A6889680068FFF798FF226893685C
:101C380043F0770393600020C9E7CA6849680068E1
:101C4800FFF70EFD60212068FFF71DFD0020BEE7AD
:101C5800CA6849680068FFF7F1FC40212068FFF76F
:101C680012FD0020B3E70020B1E70120AFE7022012
:101C7800704701F01F014FF0010C0CFA01FC036AD8
:101C880023EA0C030362036A8A4013430362704722
:101C980010B504460846002948D194F83E30DBB216
:101CA800013B18BF0123002B40F0A380002856D128
:101CB800022384F83E302268D36843F00203D360DD
:101CC800012201462068FFF7D4FF23684C4A93425B
:101CD80003D002F58062934203D15A6C42F4004269
:101CE8005A642368464A934278D0B3F1804F75D03E
:101CF800A2F57C42934271D002F5806293426DD086
:101D080002F58062934269D002F57842934265D029
:101D180002F57052934261D0A2F5943293425DD09D
:101D28001A6842F001021A60002061E0042908D014
:101D380008290DD094F84130DBB2013B18BF0123CC
:101D4800B1E794F83F30DBB2013B18BF0123AAE7A3
:101D580094F84030DBB2013B18BF0123A3E7042805
:101D680024D008282BD0022384F841300C2842D8EC
:101D780001A353F820F000BFBF1C0008FF1D000896
:101D8800FF1D0008FF1D0008BB1D0008FF1D0008FF
:101D9800FF1D0008FF1D0008CD1D0008FF1D0008DD
:101DA800FF1D0008FF1D0008D91D0008022384F844
:101DB8003F302268D36843F00403D36080E70223EE
:101DC80084F840302268D36843F00803D36077E78B
:101DD8002268D36843F01003D36071E79A6802F071
:101DE8000702062A09D01A6842F001021A60002088
:101DF80010BD0120FCE70120FAE70020F8E700BF4A
:101E08000000014090F83C20012A3CD010B4034661
:101E1800012280F83C20022280F83D2002685068A8
:101E2800946820F0700C086840EA0C0050601A684A
:101E3800164882421AD0B2F1804F17D0A0F57C40E4
:101E4800824213D000F5806082420FD000F5806096
:101E580082420BD000F57840824207D000F57050DE
:101E6800824203D0A0F59430824204D124F0800449
:101E7800496821439160012283F83D20002083F8BE
:101E88003C0010BC70470220704700BF00000140B2
:101E980070477047026802F10C0353E8003F23F4CF
:101EA80090730C3242E800310029F3D1026802F144
:101EB800140353E8003F23F00103143242E80031D1
:101EC8000029F3D1036B012B05D0202380F8423081
:101ED800002303637047026802F10C0353E8003FD4
:101EE80023F010030C3242E800310029F3D1ECE76B
:101EF80090F84130DBB2212B01D002207047836873
:101F0800B3F5805F17D0036A5A1C02621A78036817
:101F18005A60C38C9BB2013B9BB2C3844BB9026825
:101F2800D36823F08003D3600268D36843F040038A
:101F3800D360002070470369002BE4D1036A1B8833
:101F48000268C3F308035360036A02330362E0E7DD
:101F580010B504460268136923F44053C1680B4363
:101F68001361836802691A4343691A43C3691A43B0
:101F78000168CB6823F4164323F00C031343CB60AA
:101F88000268536923F4407381690B435361036802
:101F9800314A934206D002F58062934202D0FFF79D
:101FA80095FA01E0FFF7A2FAE369B3F5004F29D0EB
:101FB8000021031849411B1841F10001C90041EAF9
:101FC8005371DB00181863684FEA83024FEA937372
:101FD80041F10001FEF7F4F8204AA2FB003149095B
:101FE800642303FB11031B013233A2FB03235B09A8
:101FF80003F0F00202EB011203F00F03216813440F
:102008008B6010BD0023021843EB0301121841F145
:102018000001C90041EA5271D200101841F10001D3
:10202800626892185B41FEF7CBF80C4AA2FB0031BC
:102038004909642303FB1103DB003233A2FB0323AA
:102048005B095A0002F4F87202EB011203F007036D
:10205800216813448B60D4E7001001401F85EB51C1
:1020680060B310B5044690F8413013B3242384F8C4
:1020780041302268D36823F40053D3602046FFF729
:1020880067FF2268136923F4904313612268536938
:1020980023F02A0353612268D36843F40053D360C2
:1020A80000206064202384F8413084F84230606363
:1020B80010BD80F84030FEF74DFCD7E7012070478F
:1020C80090F84130DBB2202B10D189B192B1016276
:1020D8008284C28400234364212280F8412001685D
:1020E800CA6842F08002CA601846704702207047EA
:1020F8000120704701207047704708B50168CA6819
:1021080022F04002CA60202280F84120FFF7F4FF45
:10211800002008BD704708B5806B0023C385C384C1
:10212800FFF7F8FF08BD704790F84230DBB2222B6A
:1021380069D18368B3F5805F4FD0826AB3F5805F59
:1021480004D0002B56D10369002B53D103685B6878
:102158001370836A01338362C38D9BB2013B9BB2C8
:10216800C385002B51D100B583B00268D36823F032
:102178002003D3600268D36823F48073D3600268B5
:10218800536923F001035361202380F84230002370
:102198004363036B012B33D100230363026802F10D
:1021A8000C0353E8003F23F010030C3242E80031DF
:1021B8000029F3D103681A6812F0100F06D0002224
:1021C80001921A6801925B680193019B818DFFF768
:1021D800AAFF002003B05DF804FB0269002AACD115
:1021E800826A03685B68C3F308031380836A023357
:1021F8008362B1E703685B6803F07F031370A8E7A5
:10220800FEF766F9E5E702207047002070470000F6
:1022180010B582B0044602681368D068516913F09B
:102228000F0F09D113F0200F0CD010F0200F09D098
:102238002046FFF779FF16E011F0010115D110F4DF
:10224800907F12D1216B012979D013F0800F03D030
:1022580010F0800F40F0148113F0400F03D010F0FD
:10226800400F40F0118102B010BD13F0010F06D0ED
:1022780010F4807F03D0626C42F00102626413F0B4
:10228800040F04D019B1626C42F00202626413F0C8
:10229800020F04D019B1626C42F00402626413F0B8
:1022A800080F07D010F0200F00D119B1626C42F06E
:1022B80008026264626C002AD5D013F0200F02D0A5
:1022C80010F0200F29D123685B6903F04003626C8A
:1022D80012F0080F00D163B32046FFF7DBFD236837
:1022E8005B6913F0400F20D0226802F1140353E811
:1022F800003F23F04003143242E800310029F3D1B3
:10230800E36B73B1624A1A65E06BFEF7BBFC002809
:10231800A9D0E06B036D9847A5E72046FFF704FFB7
:10232800D1E72046FFF7F6FE9DE72046FFF7F2FECD
:1023380099E72046FFF7EEFE0023636493E713F066
:10234800100F82D010F0100F3FF47FAF00230193DD
:102358001368019353680193019B536913F0400F6D
:1023680052D0E26B13685B689BB2002B3FF47BAFE3
:10237800A18D99427FF677AFE385D369B3F5807F66
:1023880037D0226802F10C0353E8003F23F480732E
:102398000C3242E800310029F3D1226802F114031B
:1023A80053E8003F23F00103143242E800310029CA
:1023B800F3D1226802F1140353E8003F23F04003ED
:1023C800143242E800310029F3D1202384F8423046
:1023D80000232363226802F10C0353E8003F23F033
:1023E80010030C3242E800310029F3D1E06BFEF70C
:1023F800FFFB02236363A18DE38D9BB2C91A89B2E7
:102408002046FFF790FE2EE7A18DE38D9BB2C91AF7
:1024180089B2E38D9BB2002B3FF425AF00293FF42E
:1024280022AF226802F10C0353E8003F23F49073B3
:102438000C3242E800300028F3D1226802F114037C
:1024480053E8003F23F00103143242E8003000282B
:10245800F3D1202384F8423000232363226802F159
:102468000C0353E8003F23F010030C3242E800301D
:102478000028F3D1022363632046FFF754FEF2E6F7
:102488002046FFF735FDEEE62046FFF736FEEAE682
:102498001F21000881628285C285002343642223AC
:1024A80080F84230036923B10268D36843F480732B
:1024B800D3600268536943F0010353610268D3682B
:1024C80043F02003D3600020704708B590F84230ED
:1024D800DBB2202B08D149B10AB9012008BD00237D
:1024E8000363FFF7D7FFF9E70220F7E70120F5E7D5
:1024F80002440346934200D1704703F8011BF9E7F1
:1025080070B50D4D0D4C641BA4100026A64209D1D0
:102518000B4D0C4C00F07EF8641BA4100026A6425C
:1025280005D170BD55F8043B98470136EEE755F8DC
:10253800043B98470136F2E7542600085426000861
:10254800542600085C26000870477047024B13B1F8
:10255800024800F005B87047000000007525000823
:10256800002301461A46184600F014B838B5074D3E
:10257800074C641BA4101CB9BDE8384000F050B8E3
:10258800013C55F824309847F5E700BF5C26000861
:10259800602600082DE9F047DFF86CA00646DAF857
:1025A800000098460F469146FFF7CEFF174B1C6870
:1025B8000CB9174C1C606568DAF800001F2D05DDA2
:1025C800FFF7C3FF4FF0FF30BDE8F0879EB104EB83
:1025D80085010122C1F88890D4F88831AA401343B4
:1025E800C4F88831022EC1F8088102BFD4F88C31B2
:1025F8001343C4F88C316B1C0235636044F82570B2
:10260800FFF7A3FF0020DFE70C00002024010020D3
:1026180028010020F8B500BFF8BC08BC9E467047EA
:0C262800F8B500BFF8BC08BC9E46704727
:10263400000000000102030400000000000000008C
:08264400010203040607080966
:08264C00ACDBFF7F0100000080
:0826540055250008AD01000846
:04265C0089010008E8
:102660000024F40001000000100000002001002000
:0400000508000A09DC
:00000001FF
